:0400000007EF00F016
:0A000800468251ED04F0BBEF09F051
:10080000005069657A6173206120636F6E74617254
:100810003A004375656E74612043756D706C696450
:10082000610056616C6F72206D696E3A2030310044
:1008300056616C6F72206D61783A20353900202046
:1008400020205041524144412044450020426965E6
:100850006E76656E69646F2000202020202021457F
:1008600072726F72210046616C74616E7465733AC6
:10087000200020204F7065726172696F20005072F5
:100880006573696F6E65204F4B004F626A657469CE
:10089000766F3A2000454D455247454E4349410049
:0108A0000057
:1008A2000600F3CF14F0F4CF15F0F6CF16F0F7CF21
:1008B20017F0F8CF18F0F5CF19F0F2A416D00B0EFE
:1008C200D76EDC0ED66EF29489B202D0898201D044
:1008D2008992402A0A0E4018D8B48996130E4064B1
:1008E20004D00300406AF290D58E9EA011D0850EEE
:1008F200CF6EEE0ECE6E9E90402A0A0E4018D8B4ED
:100902008996130E406404D00300406AF290CD80B1
:10091200F2A0DDD0F00E8118D8B4D1D0406AFE0E1C
:100922008A6E81B805D0010E416E8BEC08F0C5D0FD
:1009320081BA02D0020EF8D781BC02D0030EF4D7DE
:1009420081BE03D02A0E416EB8D0FD0E8A6E81B8E8
:1009520002D0040EE9D781BA02D0050EE5D781BCD8
:1009620002D0060EE1D781BE12D0030E8D6EE4ECEA
:100972000AF011EC0BF03E0E066E9CEC09F0C20E72
:10098200BAEC0AF0950E066E9CEC09F0FFD7FB0E4E
:100992008A6E81B802D0070EC7D781BA02D0080E7C
:1009A200C3D781BC02D0090EBFD781BE03D059EC98
:1009B2000AF083D0F70E8A6E81B81DD0000E3D6E0C
:1009C200000E3C6E000E3F6E000E3E6E000E3B6E41
:1009D200000E3A6E010E8D6E4204D8A46ED08B0EBC
:1009E200BAEC0AF0020E096E3E50385CE0EC06F0FA
:1009F2003CC08CFF62D081BA02D0416A96D781BCDA
:100A020054D059EC0AF038C03EF039C03FF038C03B
:100A120001F039C002F0000E046E0A0E036E0EECF5
:100A220009F001C03AF002C03BF0F60E106EFF0E64
:100A3200116E10503A02F3CF12F0F4CF13F03B02D2
:100A4200F350132611503A02F35013263850122451
:100A52003C6E395013203D6E3A503B10D8A402D060
:100A6200020E1AD03A043B10D8A402D0030E14D0BE
:100A7200020E3A183B10D8A402D0010E0DD0030E7C
:100A82003A183B10D8A402D0050E06D0040E3A182C
:100A92003B10D8A403D0040E8D6EAAD7050E3A18C7
:100AA2003B10D8A4A5D78D6AA3D781BE06D089B63C
:100AB20002D0898601D08996D58EF00E8A6E620E9A
:100AC200106E660EE82EFED7102EFCD7F29019C0DB
:100AD200F5FF18C0F8FF17C0F7FF16C0F6FF15C0E4
:100AE200F4FF14C0F3FF4692110042EC0AF0436A8D
:100AF2000F0EC16E966A070E8D6E956A3CC08CFF12
:100B020092928992929489949296899692989482DA
:100B1200929A898A010ED56E0B0ED76EDC0ED66EB6
:100B2200F294F28AD58ECD6A000ECF6E000ECE6E92
:100B32009E909D90CD90F00E936E8A6AF19E210E4A
:100B42000001606F760EE82EFED7602FFCD7000002
:100B5200F290F286F28CF28EB9EC07F053EC07F0C9
:100B620009EC0BF0660E1F6E7DEC09F0020E226E90
:100B72003E50385C6DEC06F0C00EAFEC0AF08A0E07
:100B82001F6E7DEC09F0020E226E38506DEC06F0FD
:100B9200010E426E99D038503E1828E139503F1864
:100BA200D8A424D08984020E0001616F450E606FC3
:100BB200A90EE82EFED7602FFCD7612FFAD700D0FE
:100BC2008994D0EC0AF0120E1F6E7DEC09F0C40E6F
:100BD200AFEC0AF07E0E1F6E7DEC09F0426A416AAC
:100BE2002A0E4118D8A4FCD742EC0AF082B209D0EE
:100BF20038503E1804E139503F18D8B402D0406A48
:100C0200456A4550D8B482A25FD0010E456E3C4A77
:100C12003D2A3E4A3F2A0A0E3C183D10D8A41AD05B
:100C22008984620E0001606F650EE82EFED7602F88
:100C3200FCD700D08994000E3D6E000E3C6E3A4AFD
:100C42003B2A060E3A183B10D8A404D0000E3B6E85
:100C5200000E3A6E3A503B10D8A402D0010E1AD0C0
:100C62003A043B10D8A402D0050E14D0020E3A1852
:100C72003B10D8A402D0040E0DD0030E3A183B103C
:100C8200D8A402D0060E06D0040E3A183B10D8A4FF
:100C920003D0020E8D6E05D0050E3A183B10D8B463
:100CA2008D6A8B0EAFEC0AF0020E226E3E50385C5B
:100CB2006DEC06F03CC08CFFA30E0001606F550E78
:100CC200E82EFED7602FFCD74204D8B464D7010EB9
:100CD2008D6E3CC08CFF42D7266E898865D00A0E85
:100CE2001A6E265070EC0AF0256E2550300F37EC44
:100CF20009F0F7EC0AF0040EB8EC08F012000A0E44
:100D02001E6E640E1A6E265070EC0AF0D8EC09F0D2
:100D1200246E0A0E1A6E265070EC0AF0256E2450CC
:100D2200300F37EC09F0F7EC0AF0040EB8EC08F0DB
:100D32002550300F37EC09F0F7EC0AF0040EB8EC4E
:100D420008F01200640E1E6E2650D8EC09F0236ED5
:100D52000A0E1E6E640E1A6E265070EC0AF0D8EC63
:100D620009F0246E0A0E1A6E265070EC0AF0256EF7
:100D72002350300F37EC09F0F7EC0AF0040EB8EC10
:100D820008F02450300F37EC09F0F7EC0AF0040EAB
:100D9200B8EC08F02550300F37EC09F0F7EC0AF008
:100DA200040EB8EC08F012002250010AD8B497D70A
:100DB200030AD8B4A4D7010AD8A41200C3D70D6E6F
:100DC200898865D00A0E016E0D5084EC0AF00C6E13
:100DD2000C50300F5AEC09F0FEEC0AF0040EE3EC72
:100DE20008F012000A0E056E640E016E0D5084ECBE
:100DF2000AF0F4EC09F00B6E0A0E016E0D5084EC51
:100E02000AF00C6E0B50300F5AEC09F0FEEC0AF0AF
:100E1200040EE3EC08F00C50300F5AEC09F0FEEC33
:100E22000AF0040EE3EC08F01200640E056E0D5099
:100E3200F4EC09F00A6E0A0E056E640E016E0D5096
:100E420084EC0AF0F4EC09F00B6E0A0E016E0D5000
:100E520084EC0AF00C6E0A50300F5AEC09F0FEECEA
:100E62000AF0040EE3EC08F00B50300F5AEC09F0D4
:100E7200FEEC0AF0040EE3EC08F00C50300F5AECD2
:100E820009F0FEEC0AF0040EE3EC08F0120009503F
:100E9200010AD8B497D7030AD8B4A4D7010AD8A4B0
:100EA2001200C3D7280E1F6E010E206E5DEC08F0F3
:100EB200446AD0EC0AF0010E1F6E7DEC09F0C70EF9
:100EC200AFEC0AF0010EA4EC0AF0010EA4EC0AF059
:100ED200C70EAFEC0AF005EC0BF0010E436E416A4F
:100EE2002A0E4118D8A4FCD7395008E13C0E385CD0
:100EF200D8B004D038503910D8A434D0436A416AEB
:100F0200000E396E000E386ED0EC0AF009EC0BF0D0
:100F1200590E1F6E7DEC09F0020E246E450E236EF3
:100F2200AA0EE82EFED7232EFCD7242EFAD7D0EC19
:100F32000AF0300E1F6E7DEC09F0C00EAFEC0AF025
:100F4200220E1F6E7DEC09F0030E246E8A0E236EB4
:100F5200560EE82EFED7232EFCD7242EFAD7D0EC3D
:100F62000AF0A0D7436A446AD0EC0AF0416A120040
:100F7200040E98EC0AF00FEC08F009EC0BF0300EBE
:100F82001F6E000E206E5DEC08F0000EA4EC0AF05D
:100F9200000EA4EC0AF04C0E1F6E7DEC09F0000E60
:100FA200A4EC0AF0000EA4EC0AF0C00EAFEC0AF0BA
:100FB200000EA4EC0AF0000EA4EC0AF0720E1F6EF2
:100FC2007DEC09F0000EA4EC0AF0000EA4EC0AF08D
:100FD200050E246E0F0E236EF10EE82EFED7232E81
:100FE200FCD7242EFAD70000000E266E000E256EC6
:100FF200DAEC0AF0210E236E760EE82EFED7232EAF
:10100200FCD700D0254A262A26BEF2D7265005E173
:10101200120E255CD8B01200EBD712008998040E8C
:101022002718D8A404D08C500F0B300901D03F0EE2
:101032008C6EF7EC0AF0010EB8EC08F0040E2718DB
:10104200D8A404D08C500F0B300901D03F0E8C6E07
:10105200F7EC0AF0030EB8EC08F0040E2718D8A437
:1010620004D08C500F0B300901D03F0E8C6EF7EC80
:101072000AF0040EB8EC08F0040E2718D8A411D018
:101082008C500F0B20098C6EF7EC0AF0040EB8ECB2
:1010920008F02F0E37EC09F0F7EC0AF0040EB8EC6A
:1010A20008F0D0EC0AF00F0E37EC09F0F7EC0AF07A
:1010B200040EB8EC08F0120089982050080DF35085
:1010C200400937EC09F0F7EC0AF0040EB8EC08F02E
:1010D2008988020EB8EC08F0000E226E000E216E16
:1010E2001F502124D96EDA6ADF5037EC09F0F7EC91
:1010F2000AF0040EB8EC08F0214A222A22BEF0D7E8
:10110200225004E1080E215CD8A0EAD7800EAFEC91
:101112000AF012004450D8A40CD04304D8A409D039
:10112200010E096E4150E0EC06F041C038F0396A18
:101132001CD04404D8A419D04304D8A416D0010E5C
:10114200096E4150E0EC06F00A0E3802F3CF0EF0C1
:10115200F4CF0FF03902F3500F2641500E24386EAF
:10116200000E0F20396E11EC0BF0442A12001B6E98
:101172001BD0050E1A6EDE0EE82EFED71A2EFCD7F5
:101182001200530EE82EFED70000350EE82EFED7D1
:1011920000001200080EE82EFED700001200030E17
:1011A200E82EFED7000012001B50010AD8B4E1D786
:1011B200030AD8B4E6D7010AD8B4ECD7070AD8A4F0
:1011C2001200EDD7026E1BD0050E016EDE0EE82E68
:1011D200FED7012EFCD71200530EE82EFED70000D8
:1011E200350EE82EFED700001200080EE82EFED7BC
:1011F20000001200030EE82EFED70000120002507B
:10120200010AD8B4E1D7030AD8B4E6D7010AD8B4A0
:10121200ECD7070AD8A41200EDD7000E066E000E16
:10122200056E03500410D8B41CD0010E076E04D012
:10123200D89003360436072A04AEFAD7D89005367A
:1012420006360350015C04500258D8A005D0035062
:10125200015E0450025A0580D89004320332072EF0
:10126200EDD705C001F006C002F012001D6E040E9B
:101272002718D8A417D01DC01CF0F00E1C168C50D5
:101282000F0B1C108C6EF7EC0AF0010EB8EC08F094
:101292001DC01CF01C3AF00E1C168C500F0B1C10BB
:1012A2008C6E1200080E2718D8A412001DC08CFFE5
:1012B2001200046E040E2718D8A417D004C003F03D
:1012C200F00E03168C500F0B03108C6EFEEC0AF01E
:1012D200010EE3EC08F004C003F0033AF00E03162B
:1012E2008C500F0B03108C6E1200080E2718D8A416
:1012F200120004C08CFF1200000E226E000E216E3E
:101302000DD01F502124206E20C0F6FF080EF76E6C
:101312000800F550A4EC0AF0214A222A1F50212489
:10132200206E20C0F6FF080EF76E0800F550000987
:10133200D8B41200E6D7000E096E000E086E0DD06A
:1013420006500824076E07C0F6FF080EF76E080065
:10135200F550C5EC0AF0084A092A06500824076E1F
:1013620007C0F6FF080EF76E0800F5500009D8B462
:101372001200E6D7DC0EF66E150EF76E000EF86E52
:1013820000EE27F010EE11F00900F5CFEEFFE55068
:10139200E150FAE100EE38F00D0EEE6AE806FDE1EA
:1013A20046904692000EF86E000176EF05F01F6E31
:1013B200216A1E50D8B415D0010E206E03D0D890E9
:1013C2001E36202A1EAEFBD7D89021361E501F5C37
:1013D200D8A003D01E501F5E2180D8901E32202E2E
:1013E200F3D721501200066E086A0550D8B415D002
:1013F200010E076E03D0D8900536072A05AEFBD73B
:10140200D89008360550065CD8A003D00550065E79
:101412000880D8900532072EF3D7085012001F6EAD
:1014220089981F04D8A403D0D0EC0AF012001F50F0
:10143200FE0B020AD8A403D00DEC0BF012001F50D1
:1014420037EC09F0F7EC0AF0040EB8EC08F01200E1
:10145200066E89980604D8A403D0E4EC0AF01200C0
:101462000650FE0B020AD8A403D019EC0BF01200AE
:1014720006505AEC09F0FEEC0AF0040EE3EC08F018
:101482001200010E456E000E3D6E000E3C6E426A69
:10149200000E3F6E000E3E6E000E3B6E000E3A6E68
:1014A200446A000E396E000E386E416A406A1200BC
:1014B2004304D8A4120015EC0BF0000E396E000E96
:1014C200386E446AC70EBAEC0AF0010EC5EC0AF097
:1014D200010EC5EC0AF0C70EBAEC0AF012001B6E40
:1014E200080E1C6E1D6AD8901B341D341D6ED890D8
:1014F2001B361A501D5CD8A002D01A501D5E1C2E3D
:10150200F2D71D501200026E080E036E046AD890C4
:1015120002340434046ED89002360150045CD8A020
:1015220002D00150045E032EF2D7045012001A6E4C
:10153200040E1A18D8B404D0080E1A18D8A412002F
:101542001AC027F012001E6E89881E5037EC09F06F
:10155200F7EC0AF0040EB8EC08F012001E6E89983F
:101562001E5037EC09F0F7EC0AF0040EB8EC08F064
:101572001200056E899805505AEC09F0FEEC0AF04B
:10158200040EE3EC08F01200056E898805505AEC4F
:1015920009F0FEEC0AF0040EE3EC08F01200899860
:1015A200010E37EC09F0F7EC0AF0020EB8EC08F085
:1015B200120089981C0E37EC09F0F7EC0AF0040EC1
:1015C200B8EC08F012008998010E5AEC09F0FEEC12
:1015D2000AF0020EE3EC08F01200081F11111111BB
:0B15E20011111F040E1F0E1F0E04004D
:1015EE00898A030EE82EFED70000899A1200898A96
:1015FE00030EE82EFED70000899A12000F0E10EC93
:10160E000AF012000C0E10EC0AF01200800EAFEC75
:10161E000AF012000C0E29EC0AF012000F0E29EC43
:0C162E000AF01200800EBAEC0AF0120064
:020000040020DA
:08000000FFFFFFFFFFFFFFFF00
:020000040030CA
:0E00000000091F1EFF8381FF0FC00FE00F409D
:00000001FF
