:0400000083EF00F09A
:100018003180D8CF02F0E8CF03F0E0CF04F0F2A0AF
:100028005ED02D6A8A50F00B0E098A6E81B802D014
:10003800010E47D081BA02D0020E43D081BC02D053
:10004800030E3FD081BE02D0040E3BD08A50F00B85
:100058000D098A6E81B802D0050E33D081BA02D05C
:10006800060E2FD081BC02D0070E2BD081BE02D045
:10007800080E27D08A50F00B0B098A6E81B802D07F
:10008800090E1FD081BA02D00A0E1BD081BC02D043
:100098000B0E17D081BE02D00C0E13D08A50F00B75
:1000A80007098A6E81B802D00D0E0BD081BA02D032
:1000B8000E0E07D081BC02D00F0E03D081BE02D035
:1000C800100E2D6E8A50F00B8A6E130E016E4E0EB6
:1000D800E82EFED7012EFCD700D08150F290F2A472
:1000E80006D0F294700ED76E910ED66E897204C047
:1000F800E0FF03C0E8FF02C0D8FF31901000B7EF5F
:0201080007F0FE
:10080000003738394134353642313233432A3023C8
:10081000444F4B2F412C205253542F2A2C20454E0D
:10082000442F23003E3E204F626A657469766F2034
:100830004F4B203C3C005265696E696369652063DB
:100840006F6E204D434C5200212120454D455247AB
:10085000454E43494120212100496E677265736509
:10086000206F626A657469766F004F626A657469A9
:10087000766F20696E76616C2E0053697374656DB6
:100880006120636F6E74656F004F4B3D41202053B4
:100890005550523D43004269656E76656E69646FDE
:1008A000210052616E676F20312E2E3539004F6264
:1008B0006A657469766F3A200020436F6E746164D4
:1008C0006F3A004F626A657469766F3A0046616CF0
:1008D00074616E3A00000F0EC16EC90E9216C90EF9
:1008E000891694820F0E9516F00E936E8A50F00BB7
:1008F0008A6EF19ED08EF28EF28CF1908150F29041
:10090000F286E1EC07F012EC06F0306A2F6A2E6AEC
:100910002C6A2B6A2A6A296A67EC07F01E0E256E7C
:10092000CE0E246EC90EE82EFED7242EFCD7252E1F
:10093000FAD70000ECEC07F077EC07F0010E266E1A
:100940002E50D8B40BD087EC07F03E0E246E080E64
:10095000E82EFED7242EFCD700D0F2D72D50D8B4E5
:10096000A8D02D501AEC07F0286E2D6A420E2818D8
:10097000D8A403D0010E2E6EE3D73050D8A476D081
:100980002F50D8A473D02F0E28641AD03A0E2860A6
:1009900017D0020E2A600DD029500A0DF3502824DA
:1009A000D00F296E2A2A2AC010F02950A4EC06F094
:1009B00080D0000E1F6E460E1E6E8DEC05F079D0B5
:1009C000430E2818D8A410D02A50D8B4F2D72A063B
:1009D0000A0E056E2950CEEC06F0296E2AC010F0E2
:1009E0002950A4EC06F065D0410E2818D8A435D0C3
:1009F0002950D5EC07F00009D8B409D029C02CF053
:100A00002B6A010E306E2F6A4BEC06F052D003ECCD
:100A100008F06A0E0B6E97EC07F0010E0C6E000EDC
:100A200055EC07F0A20E0B6E97EC07F0000E1F6E50
:100A3000C80E1E6E8DEC05F0060E256E5E0E246E41
:100A40005A0EE82EFED7242EFCD7252EFAD700D03A
:100A500077EC07F02A6A296A2CD02A0E2818D8A425
:100A600028D02A6A296A77EC07F023D03050D8B40E
:100A700011D02F50D8A40ED02A0E2818D8A403D0F5
:100A800007EC08F0C1D7230E2818D8A412D0ECEC3C
:100A900007F0E9D72F50D8B40CD0410E2818D8B49D
:100AA000F6D72A0E2818D8B4F2D7230E2818D8B4AF
:100AB000EED7000E82B2010E276E3050D8B423D08C
:100AC0002F50D8A420D02604D8A41DD02750D8A4B5
:100AD0001AD03B0E2B6001D02B2A4BEC06F02C5089
:100AE000D8B409D02C502B5CD8A005D0010E2F6EA5
:100AF000306A04EC07F02E0E246EC60EE82EFED7E8
:100B0000242EFCD700D027C026F00D0E246E340E04
:100B1000E82EFED7242EFCD713D71EC005F01FC029
:100B200006F0076A086AE80E096E030E0A6E000EE8
:100B30000B6E000E0C6E79EC06F005C011F006C0CD
:100B400012F007C013F008C014F0F40E156E010E79
:100B5000166E000E176E000E186ED1EC05F011C067
:100B600020F012C021F013C022F014C023F00AD0EC
:100B70008984610EE82EFED700D08994610EE82E9C
:100B8000FED700D02006000E215A225A235A2028D0
:100B9000EFE12128EDE12228EBE12328D8B412006F
:100BA000E7D7000E196E000E1A6E000E1B6E000EB7
:100BB0001C6E1550161017101810D8B42AD0010E3C
:100BC0001D6E06D0D89015361636173618361D2AE3
:100BD00018AEF8D7D89019361A361B361C36155071
:100BE000115C165012581750135818501458D8A0AA
:100BF00009D01550115E1650125A1750135A18503A
:100C0000145A1980D89018321732163215321D2E08
:100C1000E1D719C011F01AC012F01BC013F01CC0AC
:100C200014F012001F0E0C6E840EE82EFED70C2E50
:100C3000FCD78998899A030EC6EC07F0080E0C6E53
:100C4000A00EE82EFED70C2EFCD70000030EC6EC3B
:100C500007F03A0EE82EFED700D0030EC6EC07F0E0
:100C60003A0EE82EFED700D0020EC6EC07F03A0E80
:100C7000E82EFED700D0280EEAEC06F0080EEAECCB
:100C800006F0010EEAEC06F0060EEAEC06F00C0E99
:100C9000EAEC06F0120003EC08F0C30E0B6E97ECC2
:100CA00007F02C5043EC07F0B90E0B6E97EC07F0F1
:100CB0002B5043EC07F0010E0C6E000E55EC07F0C4
:100CC000CD0E0B6E97EC07F02C502B5CD8A005D006
:100CD000000E116E000E106E06D02B502C5C106EA4
:100CE000116AD8A0110610C012F0125043EC07F0A0
:100CF0001200000E0D6E000E0E6E000E0F6E000E36
:100D0000106E05A008D009500D260A500E220B5077
:100D10000F220C501022D89009360A360B360C36AA
:100D2000D8900832073206320532055006100710F7
:100D30000810D8A4E6D70DC005F00EC006F00FC00D
:100D400007F010C008F01200116E03EC08F0AE0EB0
:100D50000B6E97EC07F01050D8A407D02D0EFCECCA
:100D600007F02D0EFCEC07F00FD01004D8A409D02A
:100D70000A0E056E11502FEC07F0300FFCEC07F057
:100D800003D0115043EC07F0010E0C6E000E55EC31
:100D900007F0890E0B6E97EC07F01200066E086ADA
:100DA0000550D8B415D0010E076E03D0D890053683
:100DB000072A05AEFBD7D89008360550065CD8A0A8
:100DC00003D00550065E0880D8900532072EF3D771
:100DD000085012000B6E000E086E0B50A7EC07F0C7
:100DE0000B04D8B404D0020E0B18D8A408D0040EFB
:100DF0000A6E0C0EE82EFED70A2EFCD71200130E38
:100E0000E82EFED70000120003EC08F0240E0B6E53
:100E100097EC07F0010E0C6E000E55EC07F0110E6A
:100E20000B6E97EC07F0010E1F6E900E1E6E8DEC90
:100E300005F01200076E0750D8B40FD0110E0760EE
:100E40000CD007C005F0FF0E05260550010F066EF9
:100E500006C0F6FF0800F5501200000E1200066EE4
:100E6000080E076E086AD89006340834086ED890C9
:100E700006360550085CD8A002D00550085E072E43
:100E8000F2D7085012000B6E0A0E056E0B50CEEC16
:100E900006F0300FFCEC07F00A0E056E0B502FEC3D
:100EA00007F0300FFCEC07F012000D6E0C50D8A4C8
:100EB00004D0000E0F6E000E03D0000E0F6E400E19
:100EC0000E6E0E500D248009EAEC06F0120003ECC1
:100ED00008F0960E0B6E97EC07F0010E0C6E000EEC
:100EE00055EC07F07A0E0B6E97EC07F0120003EC4E
:100EF00008F0590E0B6E97EC07F0010E0C6E000E09
:100F000055EC07F0A20E0B6E97EC07F0120003EC05
:100F100008F0480E0B6E97EC07F0010E0C6E000EF9
:100F200055EC07F0360E0B6E97EC07F0120007D069
:100F30000BC0F6FF0800F550FCEC07F00B2A0BC0C5
:100F4000F6FF0800F5500009D8B41200F1D7096E79
:100F50000850D8B402D0898801D0899809380F0B7D
:100F6000C6EC07F009500F0BC6EC07F0120000EEBC
:100F700029F0080EEE6AE806FDE131903192000E8C
:100F8000F86E080EF76E00016BEF04F0066E06C0F7
:100F900005F00F0E05160538F00B076E8C500F0B81
:100FA00007108C6EF4EC07F01200066E056A06500E
:100FB000D8B405D03C0E066002D0010E056E055077
:100FC0001200030ED56E700ED76E910ED66EF19490
:100FD000F294F28AD58E1200306A2F6A2E6A2C6A39
:100FE0002B6A2A6A296A1200898A00D0899A130E0C
:100FF000E82EFED7000012000A6E010E086E0A509D
:10100000A7EC07F01200010EEAEC06F012002B6AC2
:041010002F6A120031
:020000040020DA
:08000000FFFFFFFFFFFFFFFF00
:020000040030CA
:0E000000000C1F1EFF8181FF0FC00FE00F409C
:00000001FF
