:0400000082EF00F09B
:100018003180D8CF02F0E8CF03F0E0CF04F0F2A0AF
:100028005DD02D6A8A50F00B0E098A6E81B802D015
:10003800010E47D081BA02D0020E43D081BC02D053
:10004800030E3FD081BE02D0040E3BD08A50F00B85
:100058000D098A6E81B802D0050E33D081BA02D05C
:10006800060E2FD081BC02D0070E2BD081BE02D045
:10007800080E27D08A50F00B0B098A6E81B802D07F
:10008800090E1FD081BA02D00A0E1BD081BC02D043
:100098000B0E17D081BE02D00C0E13D08A50F00B75
:1000A80007098A6E81B802D00D0E0BD081BA02D032
:1000B8000E0E07D081BC02D00F0E03D081BE02D035
:1000C800100E2D6E8A50F00B8A6E200E016E2A0ECD
:1000D800E82EFED7012EFCD78150F290F2A406D06C
:1000E800F2940B0ED76EDC0ED66E897204C0E0FF58
:1000F80003C0E8FF02C0D8FF319010007BEF08F082
:10080000003738394134353642313233432A3023C8
:10081000444F4B3D53746172742020535550523DE8
:1008200044656C657465003E3E204F626A6574697C
:10083000766F204F4B203C3C005265696E696369BE
:100840006520636F6E204D434C52004F4B2F525327
:10085000543D204E657720636F756E740021212012
:10086000454D455247454E434941202121004F62A5
:100870006A657469766F20696E76616C2E005369C3
:100880007374656D6120636F6E74656F0052656D82
:1008900061696E696E673A20004269656E76656EC1
:1008A00069646F210052616E676F20312E2E3539D9
:1008B00000436F756E743A2000436F756E743A0092
:0708C000476F616C3A000074
:1008C8000F0EC16EB8EC08F0C90E9216C90E891643
:1008D8009482956A000E9FEC08F0F00E936E8A5091
:1008E800F00B8A6EF19E080E966E080E8D16000E9D
:1008F800056E000E066E000ED1EC07F0D08EF28E5B
:10090800F28CF1908150F290F28694EC08F086EC2B
:1009180006F0306A2F6A2E6A2C6A2B6A2A6A296ABC
:100928001DEC08F0150E256E4B0E246EBE0EE82E3B
:10093800FED7242EFCD7252EFAD700D05DEC08F080
:100948002DEC08F0010E266E2E50D8B411D03DECD7
:1009580008F0000E056E000E066E010ED1EC07F0D1
:10096800680E246EE40EE82EFED7242EFCD7F5D0B0
:100978002D50D8B4B0D02D5090EC07F0286E2D6AC9
:10098800420E2818D8A403D0010E2E6EDDD73050A1
:10099800D8A47CD02F50D8A479D02F0E28641AD090
:1009A8003A0E286017D0020E2A600DD029500A0D81
:1009B800F3502824D00F296E2A2A2AC010F0295073
:1009C800E6EC06F088D0000E1F6E460E1E6E01EC97
:1009D80006F081D0430E2818D8A410D02A50D8B4D5
:1009E800F2D72A060A0E056E295059EC07F0296E2F
:1009F8002AC010F02950E6EC06F06DD0410E2818F8
:100A0800D8A43BD0295088EC08F00009D8B40FD0FE
:100A180029C02CF02B6A010E306E2F6A000E37ECBD
:100A280007F0000EB3EC05F010EC07F054D0BFEC63
:100A380008F06E0E0B6EBDEC07F0010E0C6E000E8A
:100A48000BEC08F0A50E0B6EBDEC07F0000E1F6E48
:100A5800C80E1E6E01EC06F0070E256E170E246EEA
:100A68006A0EE82EFED7242EFCD7252EFAD700D002
:100A78002DEC08F02A6A296A2ED02A0E2818D8A444
:100A88002AD02A6A296A2DEC08F025D03050D8B42B
:100A980017D02F50D8A414D02A0E2818D8A409D0BB
:100AA800C3EC08F0000E37EC07F0000EB3EC05F0CD
:100AB800BBD7230E2818D8A40ED05DEC08F0E3D7D6
:100AC8002F50D8B408D0410E2818D8B4F6D72A0E1B
:100AD8002818D8B4F2D7000E82B2010E276E305013
:100AE800D8B432D02F50D8A42FD02604D8A42CD0D4
:100AF8002750D8A429D02C502B5CD8B01DD02B2A35
:100B08002B5037EC07F00A0E056E2B50E5EC07F07A
:100B18000009D8A406D0000E1F6E500E1E6E01EC00
:100B280006F010EC07F02C502B5CD8A005D0010E75
:100B38002F6E306AA7EC07F04E0E246EEB0EE82EEF
:100B4800FED7242EFCD7000027C026F0100E246EF6
:100B5800940EE82EFED7242EFCD700D0F5D60B6EC7
:100B680030D0000E056E010E066E010ED1EC07F0B6
:100B78001200000E056E010E066E000ED1EC07F095
:100B88001200010E056E010E066E000ED1EC07F084
:100B98001200010E056E000E066E000ED1EC07F075
:100BA8001200010E056E000E066E010ED1EC07F064
:100BB8001200010E056E010E066E010ED1EC07F053
:100BC8001200060E056E0B50E5EC07F0096E0A6A76
:100BD8000A50000AD8A4EDD70950000AD8B4C1D7E2
:100BE800010AD8B4C6D7030AD8B4CBD7010AD8B4F7
:100BF800D0D7070AD8B4D5D7DCD71EC005F01FC098
:100C080006F0076A086AE80E096E030E0A6E000EFF
:100C18000B6E000E0C6EBBEC06F005C011F006C0A2
:100C280012F007C013F008C014F0F40E156E010E90
:100C3800166E000E176E000E186E45EC06F011C009
:100C480020F012C021F013C022F014C023F00AD003
:100C58008984A60EE82EFED700D08994A60EE82E29
:100C6800FED700D02006000E215A225A235A2028E7
:100C7800EFE12128EDE12228EBE12328D8B4120086
:100C8800E7D7000E196E000E1A6E000E1B6E000ECE
:100C98001C6E1550161017101810D8B42AD0010E53
:100CA8001D6E06D0D89015361636173618361D2AFA
:100CB80018AEF8D7D89019361A361B361C36155088
:100CC800115C165012581750135818501458D8A0C1
:100CD80009D01550115E1650125A1750135A185051
:100CE800145A1980D89018321732163215321D2E20
:100CF800E1D719C011F01AC012F01BC013F01CC0C4
:100D080014F01200340E0C6EF20EE82EFED70C2EE4
:100D1800FCD78998899A030E6CEC08F00D0E0C6EBE
:100D2800FC0EE82EFED70C2EFCD7030E6CEC08F058
:100D3800640EE82EFED7030E6CEC08F0640EE82E65
:100D4800FED7020E6CEC08F0640EE82EFED7280ED3
:100D580075EC07F0080E75EC07F0010E75EC07F05E
:100D6800060E75EC07F00C0E75EC07F01200000E7D
:100D78000D6E000E0E6E000E0F6E000E106E05A0AA
:100D880008D009500D260A500E220B500F220C5085
:100D98001022D89009360A360B360C36D89008320D
:100DA8000732063205320550061007100810D8A47D
:100DB800E6D70DC005F00EC006F00FC007F010C052
:100DC80008F01200116EBFEC08F0B10E0B6EBDEC0E
:100DD80007F01050D8A407D02D0EB1EC08F02D0E56
:100DE800B1EC08F00FD01004D8A409D00A0E056E93
:100DF8001150E5EC07F0300FB1EC08F003D01150BA
:100E0800F9EC07F0010E0C6E000E0BEC08F0110E59
:100E18000B6EBDEC07F01200BFEC08F02C502B5CF9
:100E2800D8A005D0000E116E000E106E06D02B5003
:100E38002C5C106E116AD8A0110610C012F08D0E2D
:100E48000B6EBDEC07F01250F9EC07F0010E0C6EBA
:100E5800000E0BEC08F0C00E0B6EBDEC07F02C502A
:100E6800F9EC07F012000E6E0A0E056E0E50E5EC56
:100E780007F00C6E0A0E056E0E5059EC07F00D6E59
:100E88000C509FEC08F03050D8A403D00E50D8B4C2
:100E980004D00D50B3EC05F01200000E056E000EE4
:100EA800066E000ED1EC07F01200066E086A0550B7
:100EB800D8B415D0010E076E03D0D8900536072A8E
:100EC80005AEFBD7D89008360550065CD8A003D0ED
:100ED8000550065E0880D8900532072EF3D70850D3
:100EE80012000B6E000E086E0B504DEC08F00B0450
:100EF800D8B404D0020E0B18D8A409D0060E0A6E76
:100F0800300EE82EFED70A2EFCD700D01200210E94
:100F1800E82EFED700001200076E0750D8B411D093
:100F2800110E07600ED007C005F0FF0E052605500C
:100F3800010F066E06C0F6FF080EF76E0800F550A2
:100F48001200000E1200BFEC08F0270E0B6EBDEC6D
:100F580007F0010E0C6E000E0BEC08F04B0E0B6E3A
:100F6800BDEC07F0030E1F6EE80E1E6E01EC06F0D6
:100F7800120009D00BC0F6FF080EF76E0800F550F6
:100F8800B1EC08F00B2A0BC0F6FF080EF76E08004C
:100F9800F5500009D8B41200EDD7076E0750D8B441
:100FA80002D08D8201D08D920550D8B402D08D80A8
:100FB80001D08D900650D8B402D08D8412008D9443
:100FC8001200066E080E076E086AD89006340834B8
:100FD800086ED89006360550085CD8A002D0055097
:100FE800085E072EF2D7085012000B6E0A0E056E27
:100FF8000B5059EC07F0300FB1EC08F00A0E056EF3
:101008000B50E5EC07F0300FB1EC08F012000D6E54
:101018000C50D8A404D0000E0F6E000E03D0000EA2
:101028000F6E400E0E6E0E500D24800975EC07F001
:101038001200BFEC08F0990E0B6EBDEC07F0010E24
:101048000C6E000E0BEC08F07E0E0B6EBDEC07F07C
:101058001200BFEC08F0B90E0B6EBDEC07F0010EE4
:101068000C6E000E0BEC08F0A50E0B6EBDEC07F035
:101078001200BFEC08F05D0E0B6EBDEC07F0010E20
:101088000C6E000E0BEC08F0390E0B6EBDEC07F081
:101098001200096E0850D8B402D0898801D0899806
:1010A80009380F0B6CEC08F009500F0B6CEC08F0CA
:1010B8001200306A2F6A2C6A2B6A000E37EC07F090
:1010C800000E056E000E066E000ED1EC07F0120041
:1010D800066E06C005F00F0E05160538F00B076EF4
:1010E8008C500F0B07108C6EA8EC08F0120000EE65
:1010F80029F0080EEE6AE806FDE131903192000E03
:10110800F86E000164EF04F0066E056A0650D8B464
:1011180005D03C0E066002D0010E056E0550120087
:10112800030ED56E0B0ED76EDC0ED66EF194F294CC
:10113800F28AD58E1200056E05500F0B066E8C5084
:10114800F00B06108C6E1200898A00D000D0899AA4
:10115800210EE82EFED7000012000A6E010E086E5E
:101168000A504DEC08F01200700ED312D350FC0B4D
:101178000209D36E1200010E75EC07F012002B6AFB
:041188002F6A1200B8
:020000040020DA
:08000000FFFFFFFFFFFFFFFF00
:020000040030CA
:0E00000000081F1EFF8181FF0FC00FE00F40A0
:00000001FF
